:020000040000FA
:1000000008020010E1000000E9000000EB00000021
:10001000ED000000EF000000F10000000000000013
:10002000000000000000000000000000F3000000DD
:10003000F500000000000000F7000000F9000000DB
:10004000FB000000FB000000FB000000FB000000C4
:10005000FB000000FB000000FB000000FB000000B4
:10006000FB000000FB000000FB000000FB000000A4
:10007000FB000000FB000000FB000000FB00000094
:10008000FB000000FB000000FB000000FB00000084
:10009000FB000000DD1C0000FB000000FB00000076
:1000A000FB000000FB000000FB000000FB00000064
:1000B000FB000000FB000000FB000000FB00000054
:1000C000FB000000FB000000FB000000DFF80CD08C
:1000D00000F0EAF800480047491E0000080200103E
:1000E0000648804706480047FEE7FEE7FEE7FEE7D2
:1000F000FEE7FEE7FEE7FEE7FEE7FEE73904000065
:10010000CD000000F0B504460B46154619466000C8
:100110003B4A102901D31039401C52F820604FEAA5
:10012000410C032707FA0CF7BE4342F8206052F84F
:1001300020604F0005FA07F73E4342F82060F0BD0B
:10014000F0B504460B461546194660002C4A40326D
:10015000102901D31039401C52F820604FEA410C9D
:10016000032707FA0CF7BE4342F8206052F82060DC
:100170004F0005FA07F73E4342F82060F0BD30B566
:100180000B461F496831012A07D151F8204001254B
:100190009D402C4341F8204006E051F820400125C5
:1001A0009D40AC4341F8204030BD012806D11449A0
:1001B000896A41F00801124A916206E028B91049A3
:1001C000896A21F008010E4A91627047012800D126
:1001D000052201B90A220A4BDA67704710B50446B6
:1001E000A27861782078FFF78DFFE2786178207837
:1001F000FFF7A6FF227961782078FFF7C0FF10BDD6
:1002000000C002402DE9F05F0546002092469B4663
:1002100088460646814640241DE02846414647461A
:10022000224600F031F8B0EB0A0052465B4671EB13
:100230000B0110D310461946224600F016F82D1A6D
:1002400067EB01084F4622460120002100F00DF81F
:1002500017EB00094E41201EA4F10104DDDC4846E5
:1002600031462A464346BDE8F09F202A04DB203A67
:1002700000FA02F1002070479140C2F1200320FAF9
:1002800003F3194390407047202A04DB203A21FAF7
:1002900002F00021704721FA02F3D040C2F120029F
:1002A0009140084319467047064C074D06E0E06848
:1002B00040F0010394E8070098471034AC42F6D3AD
:1002C000FFF708FF0C1F00003C1F000002E008C8F9
:1002D000121F08C1002AFAD170477047002001E0C0
:1002E00001C1121F002AFBD170470000000000006E
:1002F000000000000000000000000000FFFFFFFF02
:1003000094480068C0F30160032864D192480068F3
:1003100010F0030006D0012823D002283FD0032884
:1003200058D100E000BF8B480068C0F30E0000F118
:1003300001004FEA4000894900FB01F08849D1F8EB
:100340008810C1F3074101F10101B0FBF1F18548CB
:100350000068C0B200F10100B1FBF0F08249086012
:1003600038E07C480068C0F30E0000F101004FEA5D
:1003700040007E4900FB01F07949D1F88810C1F3B3
:10038000074101F10101B0FBF1F176480068C0B20C
:1003900000F10100B1FBF0F0734908601AE06D480C
:1003A0000068C0F30E0000F101004FEA00416C4804
:1003B000D0F88800C0F3074000F10100B1FBF0F174
:1003C00068480068C0B200F10100B1FBF0F0664976
:1003D000086000BF2FE06048006810F0030006D0FE
:1003E000012810D0022819D0032823D100E000BF33
:1003F0005C480068C0B200F101005849B1FBF0F060
:100400005949086016E057480068C0B200F1010081
:100410005649B1FBF0F0544908600BE051480068C0
:10042000C0B200F101004FF40041B1FBF0F04E49C1
:10043000086000BF00BF704720204D490860484851
:10044000D0F8A00110F0200F05D000BF4848006888
:1004500010F0400FFAD00320424908604FF000002E
:100460003F49C1F8A801434908604FF001003A49EB
:1004700008604148414908604FF0AA0040490860BF
:100480004FF0550008604FF001003E4908604FF002
:10049000AA003B4908604FF055003149C1F88C0073
:1004A00000BF2C48006810F0806FFAD00320354957
:1004B00008604FF0AA002A49C1F88C004FF055009F
:1004C0002F49086000BF2348006810F0407FFAD031
:1004D00023202D4908604FF0AA002149C1F8AC0043
:1004E0004FF05500294908604FF001002849086085
:1004F0004FF0AA00254908604FF055001849C1F88F
:10050000AC0000BF2348006810F4806FFAD00320CD
:100510001F4908604FF0AA001149C1F8AC004FF024
:1005200055001A49086000BF1A48006810F4407F5F
:10053000FAD01948194908604FF000000849C1F87D
:10054000C80143F23A0008604FF000001449086007
:100550007047000088C00F400CC10F4000093D00EB
:1005600000C00F4004C10F4000000010001BB70086
:10057000A0C10F40ACC10F406300050084C00F4014
:100580008CC00F4080C00F40A4C00F40ACC00F40D3
:10059000A0C00F40A8C00F40DE872804C4C00F4091
:1005A00008ED00E02DE9F34F93B08046002009905C
:1005B000FB48804504D1062001F027FB814616E068
:1005C000F848804504D1082001F01FFB81460EE069
:1005D000F548804504D1302001F017FB814606E044
:1005E000F248804503D1322001F00FFB81464FF0E5
:1005F000FF300490002007900690002425464FF01D
:10060000010A53E00020089047E0089850441499EC
:100610004843029000201C22CDE90C0948460C9961
:10062000FFF723FE0023A0FB0A2C01FB0AC100FBFD
:100630000310CDE900209DE80700FFF7E3FD064623
:100640000F460596202230463946CDE90A76FFF757
:100650001BFE83460598B0F1004F04D9059840422F
:1006600005900BF1010BBBF1000F02D0BBF5803FF1
:1006700000D90FE0DDE9041088420AD20598049001
:1006800000255C4608980790CDF818A0049800B99A
:1006900006E000BF0898401C089008985045B4D365
:1006A00000BF049800B904E00AF1010ABAF10F0F83
:1006B000A8D900BF002184EA01006940084302D1A3
:1006C00015B0BDE8F08F4FEA1910069900FB01FC48
:1006D0000846079908440021A0FB042301FB0431CC
:1006E00000FB05100346CDE9002060460021FFF71E
:1006F00089FD039014990398814204D903991498B1
:10070000401A049003E014990398401A049064215D
:10071000049848431499B0FBF1F00490049803281E
:1007200047D2A048804521D198F80C0040F08000C5
:1007300088F80C00082220462946CDE90E54FFF720
:10074000A3FD88F8040088F8004098F80C0000F039
:100750007F0088F80C00F021069801EA0010079944
:1007600001F00F010843C8F8280020E098F80C00B9
:1007700040F0800088F80C00082220462946CDE988
:100780001054FFF781FD88F8040088F8004098F8BD
:100790000C0000F07F0088F80C00F021069801EAB8
:1007A0000010079901F00F01084388F82800012084
:1007B0000990099884E770B504460D46784884424C
:1007C00008D07848844205D07748844202D07748E0
:1007D000844200D103E0C92175A001F037FB68799C
:1007E00040B16879012805D06879022802D068797B
:1007F000032800D103E0CA216DA001F027FBA879EE
:1008000010B1A879012800D103E0CB2168A001F044
:100810001DFB287958B12879012808D028790228A9
:1008200005D02879032802D02879042800D103E0D4
:10083000CC215FA001F00AFB5948844203D1012179
:10084000082001F0FFF95748844221D10720207287
:100850000020207200E02678207D10F0010FFAD1F0
:10086000802084F8300000BF207D10F0200FFBD0E6
:10087000002084F83000606020732062207484F8C7
:100880004C0084F8540084F85000267E267D18E041
:10089000072020720020207200E02678207D10F0D2
:1008A000010FFAD1802084F8300000BF207D10F0C5
:1008B000200FFBD0002084F830006060207320629D
:1008C000267D3A48844202D1002084F82400204644
:1008D0002968FFF767FE3348844203D1207B00F08C
:1008E000C00602E0207B00F0C006687930B1012824
:1008F00006D0022807D0032808D108E000BF09E08D
:1009000046F0010606E046F0020603E000BF46F0AE
:10091000030600BF00BF2879C0B146F00806287959
:10092000012806D0022806D0032807D004280BD1BE
:1009300007E000BF09E046F0100606E046F020069A
:1009400003E046F0300600E000BF00BFA87928B100
:10095000012802D146F0040601E000BF00BF00BF3D
:100960001048844201D1267300E0267370BD70B533
:1009700004460D460A48844208D00A48844205D0FD
:100980000948844202D00948844200D104E040F280
:10099000EA3107A001F05AFA0DB1012D1ED123E072
:1009A00000C00040000001400080094000C0094034
:1009B0002E2E5C2E2E5C2E2E5C2E2E5C44726976C2
:1009C0006572735C736F757263655C6C70633137ED
:1009D00078785F756172742E6300000040F2EB312D
:1009E000AFF2340001F032FA012D10D1FF488442F9
:1009F00006D194F8300040F0800084F8300014E014
:100A000094F8300040F0800084F830000DE0F748A2
:100A1000844205D194F83000002084F8300004E0CE
:100A200094F83000002084F8300070BD10B5044602
:100A3000EF48844208D0ED48844205D0ED48844216
:100A400002D0ED48844200D105E040F29511AFF2AA
:100A5000A00001F0FBF900212046FFF788FFE448E1
:100A6000844203D10021082001F0ECF810BD4FF4BE
:100A7000165101600321417100210171817170479C
:100A800070B504460D46DA48844208D0D7488442FF
:100A900005D0D848844202D0D748844200D105E02E
:100AA00040F2D911AFF2F80001F0D0F9CF488442FA
:100AB00001D1257000E0257070BD10B50446CC480A
:100AC000844208D0C948844205D0CA48844202D032
:100AD000C948844200D105E04FF4F971AFF23010FB
:100AE00001F0B4F9C148844201D1207810BD2078CA
:100AF000FCE72DE9FF5F80468A46934657465C46F1
:100B00000398012824D100251FE04FF0FF3905E0AC
:100B1000B9F1000F00D106E0A9F1010998F814001D
:100B200010F0200FF4D000BFB9F1000F00D10EE09B
:100B3000102607E017F8011B4046FFF7A1FF761EBD
:100B4000641E6D1C0EB1002CF4D1002CDDD117E019
:100B5000002512E098F8140010F0200F00D10EE0EC
:100B6000102607E017F8011B4046FFF789FF641EB7
:100B7000761E6D1C0EB1002CF4D1002CEAD100BF02
:100B8000284604B0BDE8F09F2DE9F05F074689468E
:100B900092469B464E465546BBF1010F1DD100249F
:100BA00018E04FF0FF3805E0B8F1000F00D105E084
:100BB000A8F10108387D10F0010FF5D000BFB8F1A1
:100BC000000F00D108E03846FFF777FF06F8010B69
:100BD0006D1E641C002DE4D110E000240BE0387D74
:100BE00010F0010F00D108E03846FFF766FF06F865
:100BF000010B641C6D1E002DF1D100BF2046BDE825
:100C0000F09F10B504467A48844208D07748844261
:100C100005D07848844202D07748844200D105E06C
:100C20004FF42171AFF2782001F010F96F4884423F
:100C300004D1207B40F04000207303E0207B40F093
:100C40004000207310BD2DE9F04104460D461746C3
:100C50006748844208D06548844205D0654884428C
:100C600002D06548844200D105E040F2AB21AFF2EA
:100C7000C02001F0EBF80FB1012F00D105E04FF4D7
:100C80002B71AFF2D42001F0E1F8072D15D2DFE887
:100C900005F00406080A0C0E110001260DE00226DC
:100CA0000BE0042609E0082607E0802605E04FF463
:100CB000807602E04FF4007600BF00BF4B488442CC
:100CC00014D15DB1012D09D0022D07D0052D05D01D
:100CD000062D03D0032D01D0042D00D116E04FF4D2
:100CE0003271AFF2343001F0B1F80FE03DB1012DB7
:100CF00005D0022D03D0052D01D0062D00D105E031
:100D00004FF43371AFF2583001F0A0F8012F0AD13F
:100D10003648844203D160683043606013E0606805
:100D2000304360600FE03148844206D1606840F291
:100D30008F31B1430840606005E0606840F20731E0
:100D4000B14308406060BDE8F08110B50446284812
:100D5000844208D02548844205D02648844202D0E7
:100D60002548844200D105E040F2FA21AFF2C030BC
:100D700001F06CF81D48844201D1007D10BD207D3A
:100D8000FCE710B504461A48844208D0174884424C
:100D900005D01848844202D01748844200D105E0AB
:100DA00040F21131AFF2F83001F050F8A06840F293
:100DB000CF31084010BD0146087D10F0400F01D032
:100DC000002070470120FCE770B506460C46002560
:100DD0000748864208D00548864205D00548864225
:100DE00002D00548864209D10EE000000000014013
:100DF00000C000400080094000C0094040F2373187
:100E0000AFF2544001F022F8E07840B1E0780128D8
:100E100005D0E078022802D0E078032800D105E070
:100E20004FF44E71AFF2784001F010F8A07810B195
:100E3000A078012800D105E040F23931AFF29040AE
:100E400001F004F8207810B12078012800D105E0E5
:100E500040F23A31AFF2A84000F0F8FF607810B1EC
:100E60006078012800D105E040F23B31AFF2C0408C
:100E700000F0ECFF45F00105E07830B1012806D024
:100E8000022807D0032808D108E000BF09E045F098
:100E9000400506E045F0800503E000BF45F0C005D1
:100EA00000BF00BF6078012801D145F0040520781B
:100EB000012801D145F00205A078012801D145F0B3
:100EC00008054948864203D105F0CF00307202E0A0
:100ED00005F0CF00307270BD00218170C17001211A
:100EE0000170417070472DE9F04104460F461546E8
:100EF0003E48844208D03C48844205D03C48844265
:100F000002D03C48844200D105E040F29231AFF279
:100F1000605000F09BFF0DB1012D00D105E040F2C3
:100F20009331AFF2745000F091FF0026012D09D1EA
:100F30003878012801D146F002067878012801D1DD
:100F400046F004062848844215D1012D10D1207B9B
:100F500040F080002073002020702071207B20F062
:100F6000800020731020A06246F00100206218E08B
:100F70000020206215E0012D11D1207B40F080007F
:100F80002073002020702071207B20F080002073CF
:100F9000102084F8280046F00100206201E00020C3
:100FA0002062BDE8F08170B504460D460F488442CA
:100FB00008D00D48844205D00D48844202D00D4827
:100FC000844200D105E040F2D331AFF21C6000F062
:100FD0003DFF0548844203D1206A2843206202E095
:100FE000206A2843206270BD0000014000C000401C
:100FF0000080094000C0094013B5044601231A4689
:1010000001A92046FFF775FD1CBD38B50446002038
:10101000009001231A4669462046FFF7B5FD9DF86A
:10102000000038BD70B506460D462C4604E014F8A5
:10103000011B3046FFF7E0FF20780028F7D170BD94
:1010400070B504460D4629462046FFF7EBFFE9A19F
:101050002046FFF7E7FF70BD2DE9F04105460C463D
:101060000A2094FBF0F100FB1140C6B20A2094FB69
:10107000F0F00A2190FBF1F201FB1200C7B26420EC
:1010800094FBF0F090FBF1F201FB120000F0FF087E
:1010900008F13000C1B22846FFF7AEFF07F130007B
:1010A000C1B22846FFF7A8FF06F13000C1B22846BA
:1010B000FFF7A2FFBDE8F0812DE9F04705460C4699
:1010C0000A2094FBF0F100FB1140C6B20A2094FB09
:1010D000F0F00A2190FBF1F201FB1200C7B264208C
:1010E00094FBF0F090FBF1F201FB120000F0FF081E
:1010F0004FF47A7094FBF0F090FBF1F201FB1200D8
:1011000000F0FF0942F2107094FBF0F090FBF1F256
:1011100001FB120000F0FF0A0AF13000C1B22846BC
:10112000FFF76AFF09F13000C1B22846FFF764FFFC
:1011300008F13000C1B22846FFF75EFF07F130002A
:10114000C1B22846FFF758FF06F13000C1B2284669
:10115000FFF752FFBDE8F0872DE9F34F83B00C464F
:101160000A20B4FBF0F100FB1140C5B20A20B4FB29
:10117000F0F00A21B0FBF1F201FB1200C6B26420CC
:10118000B4FBF0F0B0FBF1F201FB1200C7B24FF478
:101190007A70B4FBF0F0B0FBF1F201FB120000F04A
:1011A000FF0842F21070B4FBF0F0B0FBF1F201FB6B
:1011B000120000F0FF099048B4FBF0F0B0FBF1F230
:1011C00001FB120000F0FF0A8C48B4FBF0F0B0FB0A
:1011D000F1F201FB120000F0FF0B8948B4FBF0F0C4
:1011E000B0FBF1F201FB1200C0B202908548B4FBE3
:1011F000F0F0B0FBF1F201FB1200C0B201908248A6
:10120000B4FBF0F0B0FBF1F201FB1200C0B20090B1
:1012100000983030C1B20398FFF7EEFE01983030ED
:10122000C1B20398FFF7E8FE02983030C1B20398CC
:10123000FFF7E2FE0BF13000C1B20398FFF7DCFECE
:101240000AF13000C1B20398FFF7D6FE09F1300071
:10125000C1B20398FFF7D0FE08F13000C1B2039885
:10126000FFF7CAFE07F13000C1B20398FFF7C4FED2
:1012700006F13000C1B20398FFF7BEFE05F1300061
:10128000C1B20398FFF7B8FE05B0BDE8F08F2DE9B5
:10129000F04107460D465DA13846FFF7C3FE012623
:1012A00000BFB00045FA00F000F00F04092C02DD89
:1012B00004F1370001E004F13000C1B23846FFF715
:1012C0009BFE3000A6F10101CEB2EAD1BDE8F0816B
:1012D0002DE9F04107460D464CA13846FFF7A2FE26
:1012E000032600BFB00045FA00F000F00F04092CFF
:1012F00002DD04F1370001E004F13000C1B23846EC
:10130000FFF77AFE3000A6F10101CEB2EAD1BDE8C6
:10131000F0812DE9F04107460D463CA13846FFF724
:1013200081FE072600BFB00025FA00F000F00F0490
:10133000092C02DD04F1370001E004F13000C1B2F4
:101340003846FFF759FE3000A6F10101CEB2EAD1CE
:10135000BDE8F0811FB501208DF8020000208DF856
:1013600004008DF8030002208DF8010000208DF8A4
:1013700000006846FEF732FF03208DF80100684642
:10138000FEF72CFF02A8FFF772FB4FF4E13002904A
:1013900002A91F48FFF70FFA01211D48FFF7E7FADE
:1013A000AFF27F301B490860AFF26B301A4908601A
:1013B000AFF2BB3019490860AFF22D101849086030
:1013C000AFF2F30017490860AFF2B90016490860A0
:1013D000AFF27B3015490860AFF223301449086042
:1013E000AFF28B2013490860AFF2E1301249086078
:1013F0001FBD00000A0D0000A086010040420F0042
:101400008096980000E1F50500CA9A3B307800000C
:1014100000C0004000C0072004C0072008C007200B
:1014200018C007201CC0072020C007200CC00720C0
:1014300010C0072014C0072024C007202DE9F04168
:1014400004460D46B848844200D103E04221B7A0CB
:1014500000F0FCFC1DB1C048854200D803E04321E8
:10146000B2A000F0F3FC0121080300F0EBFB002028
:1014700020604FF40018182000F0C7FB064605EB6B
:10148000851707EB46007900B0FBF1F0471E48EAEC
:101490000728C4F80080BDE8F08110B50446A248D2
:1014A000844200D103E06321A0A000F0CFFC2068BB
:1014B00020F40010206000214FF4805000F0C2FBA7
:1014C00010BD014601B100BF00BF9748103050F871
:1014D0002120C2F30B10704770B505460C469248A8
:1014E000854200D103E08C2190A000F0AFFC6CB1EC
:1014F000012C0BD0022C09D0032C07D0042C05D0D2
:10150000052C03D0062C01D0072C00D103E08D213F
:1015100086A000F09BFC286820F0E0602860286826
:1015200040EA0460286070BD70B504460D467E48F0
:10153000844200D103E09E217CA000F087FC20685B
:1015400020F4803020601DB1206840F4803020609D
:1015500070BD70B504460D467348844200D103E067
:10156000B02172A000F072FC206820F4001020600E
:101570001DB1206840F40010206070BD70B50446B5
:101580000D466948844200D103E0C22167A000F003
:101590005DFC0DB1012D00D103E0C32163A000F07B
:1015A00055FC206820F0006020601DB1206840F0EC
:1015B0000060206070BD70B505460C4616465A485E
:1015C000854200D103E0DB2158A000F03FFC7CB154
:1015D000012C0DD0022C0BD0032C09D0042C07D0E9
:1015E000052C05D0062C03D0072C01D0082C00D1E7
:1015F00003E0DC214DA000F029FCE8680121A140B6
:101600008843E86026B1E9680120A0400143E96011
:1016100070BD70B504460D4616464348844200D15D
:1016200003E0EE2141A000F011FC05B100BF00BFB6
:10163000012E05D120680121A9400843206004E063
:1016400020680121A9408843206070BD70B5044620
:101650000D463548844200D104E04FF4817133A037
:1016600000F0F4FB05B100BF00BF04F1100050F81A
:101670002560C6F30B1070BD2DE9F04107460E46FC
:1016800014462948874200D104E04FF48B7127A00B
:1016900000F0DCFB06B100BF00BF0CB1012C00D193
:1016A00004E04FF48C7121A000F0D0FB07F1100092
:1016B00050F8265014B105F0004501E005F08045D2
:1016C00015B10120BDE8F0810020FBE710B504460C
:1016D0001548844200D104E040F22F1113A000F01D
:1016E000B5FB606810BD70B506460C460E488642D4
:1016F00000D104E04FF4A0710CA000F0A7FB0CB1E6
:10170000012C00D104E040F2411108A000F09EFB42
:10171000756814B105F0004501E005F080450DB194
:10172000012070BD0020FCE7004003402E2E5C2EFF
:101730002E5C2E2E5C2E2E5C447269766572735C74
:10174000736F757263655C6C7063313778785F6155
:1017500064632E6300000000400D0300014600207A
:10176000052912D2DFE801F00305080B0E00F84846
:101770000CE0F748203009E0F548403006E0F44836
:10178000603003E0F248803000E000BF00BF7047E7
:1017900001460020052912D2DFE801F00305080BFD
:1017A0000E00EB480CE0EA48203009E0E848403001
:1017B00006E0E748603003E0E548803000E000BF25
:1017C00000BF704701460020052912D2DFE801F072
:1017D0000305080B0E00DE480CE0DD48203009E070
:1017E000DB48403006E0DA48603003E0D84880301B
:1017F00000E000BF00BF70472DE9F04107460D46ED
:1018000016463846FFF7AAFF04463CB11EB12068D1
:101810002843206002E02068A8432060BDE8F081F2
:1018200070B506460C463046FFF798FF054605B1F1
:10183000AC6170BD70B506460C463046FFF78EFFB2
:10184000054605B1EC6170BD70B505462846FFF749
:1018500085FF04460CB1606970BD0020FCE718B933
:1018600012B9BC4B196014E0022803D112B9BA4B6B
:1018700019600EE020B9012A02D1B84B196008E0C6
:10188000022804D1012A02D1B54B196001E000BF42
:10189000FEE7704703463BB932B9B248006820FA08
:1018A00001F000F001007047022B07D132B9AE48B9
:1018B000006820FA01F000F00100F4E743B9012AC2
:1018C00006D1AA48006820FA01F000F00100EAE71A
:1018D000022B08D1012A06D1A548006820FA01F0A0
:1018E00000F00100DFE700BFFEE710B9A14A116078
:1018F00006E0022802D1A04A116001E000BFFEE725
:10190000704770B504460D461646324629462046B5
:10191000FFF772FF70BD70B504460D46294620469C
:10192000FFF77EFF70BD70B504460D462946204680
:10193000FFF780FF70BD10B504462046FFF784FF17
:1019400010BD70B504460D4616463246294620465F
:10195000FFF785FF70BD70B504460D46164632464A
:1019600029462046FFF796FF70BD10B503460C468A
:1019700021461846FFF7B9FF10BD2DE9F041074693
:101980000D4616463846FFF7E9FE04463CB11EB147
:1019900020692843206102E02069A8432061BDE856
:1019A000F0812DE9F04180460E4615461F4640461F
:1019B000FFF7EEFE04468CB147B11EB160882843A4
:1019C00060800BE020882843208007E01EB16088FB
:1019D000A843608002E02088A8432080BDE8F08111
:1019E0002DE9F04180460E4615461F464046FFF75A
:1019F000CFFE04468CB147B11EB1608A2843608295
:101A00000BE0208A2843208207E01EB1608AA843A9
:101A1000608202E0208AA8432082BDE8F0812DE99F
:101A2000F04107460E4614463846FFF7B1FE05461C
:101A30001DB10EB16C8300E02C83BDE8F0812DE96F
:101A4000F04107460E4614463846FFF7A1FE05460C
:101A50001DB10EB1EC8300E0AC83BDE8F08170B540
:101A600006460D463046FFF793FE044624B10DB1FD
:101A7000E08A70BDA08AFCE70020FAE72DE9F0417A
:101A800080460C4616461F464046FFF79BFE05461D
:101A90005DB12FB1032C08DC285D3043285504E0EC
:101AA000032C02DC285DB0432855BDE8F0812DE908
:101AB000F04180460C4616461F464046FFF782FE20
:101AC00005469DB14FB1032C10DC05F11000005DFF
:101AD000304305F11001085508E0032C06DC05F140
:101AE0001000005DB04305F110010855BDE8F0811C
:101AF0002DE9F04107460C4615463846FFF762FED1
:101B0000064626B1032C02DC06F118000555BDE897
:101B1000F0812DE9F04107460C4615463846FFF79F
:101B200051FE064626B1032C02DC06F11C000555C9
:101B3000BDE8F08170B506460C463046FFF742FE20
:101B40000546DDB1032C19DC05F11400005D70BD04
:101B500000C0092090800240B08002409480024082
:101B6000B480024084800240A48002408880024009
:101B7000A88002408C800240AC8002400020E6E752
:101B800010B50A46202801D2034601E0A0F1200347
:101B90001946202814D2494B1B684FF0030404FA5D
:101BA00001F423EA0403464CC4F8A831434B1B68F4
:101BB00002FA01F443EA0403414CC4F8A83113E0EB
:101BC000404B1B684FF0030404FA01F423EA0403BA
:101BD0003B4CC4F8AC313B4B1B6802FA01F443EABE
:101BE0000403374CC4F8AC3110BD0146202903D2A0
:101BF0000A46324B186803E0A1F12002314B186805
:101C000020FA02F303F00300704770B506462E4831
:101C100004683046FFF7E9FF054635B1012D06D0CF
:101C2000022D06D0032D08D105E0042505E001258D
:101C300003E0022501E0082500BF00BFB4FBF5F476
:101C4000204670BD01290AD1204A1268204B00EAC3
:101C5000030342EA03021A4BC3F8C4200AE049B95D
:101C60001A4A12681A4B23EA000302EA0302144BD1
:101C7000C3F8C420704700201649086030BF704781
:101C80000420154908604FF008000D49C1F8C00054
:101C900030BF70470420104908604FF00900084920
:101CA000C1F8C00030BF704704200B4908604FF0F6
:101CB00003000349C1F8C00030BF7047A8C10F40FE
:101CC00000C00F40ACC10F4000000010C4C00F4066
:101CD000DEF7EFEFC0C00F4010ED00E010B50122BD
:101CE0000A211046FFF7D6FD08B34FF480610220A9
:101CF000FFF7FBFD56480078C04355490870084679
:101D0000007850B1012203215248FFF782FC1022D3
:101D100003210120FFF7ECFE09E0002203214D48DA
:101D2000FFF777FC102203210120FFF7F2FE10BD20
:101D300010B5494949484A4A1268904710BD1FB535
:101D4000FFF708FBFFF7F4FF01208DF80A000020E1
:101D50008DF80C008DF80B0019208DF8090000207B
:101D60008DF8080002A8FEF739FA01208DF802006C
:101D700000208DF804008DF803001A208DF8010072
:101D800000208DF800006846FEF728FA35493148F2
:101D9000FFF754FB012202212E48FFF73AFC0122F3
:101DA00003212C48FFF735FC01231022032118469C
:101DB000FFF764FE102203210120FFF7AAFE012293
:101DC00091020220FFF74BFD00BF15200121814049
:101DD00040094FF0E02202EB8000C0F8001100BF84
:101DE00001211C48FFF7A0FB2DE002211948FFF755
:101DF0002DFC05461CA11948194A1268904729462E
:101E00001648204A126890471DA114481E4A1268BD
:101E1000904703210F48FFF719FC05461BA10F4807
:101E20000F4A1268904729460C48164A1268904794
:101E300013A10A48144A12689047002400E0641C69
:101E400019488442FBD3D0E7FFF779FF00BFFEE7D4
:101E500004C207200040034028C0072000C0004003
:101E600000C00720400D03004144432076616C759B
:101E700065206F6E206368616E6E656C20323A205B
:101E80000000000014C0072004C007204144432084
:101E900076616C7565206F6E206368616E6E656C2F
:101EA00020333A200000000060E3160070B58C1863
:101EB00010F8015B15F0030201D110F8012B2B1172
:101EC00006D110F8013B03E010F8016B01F8016B3B
:101ED000521EF9D1B3B110F8012B05F00C058A1A86
:101EE0000C2D04D0A2EB851203F1020308E010F8D8
:101EF000015BA2EB0522F7E712F8015B01F8015B39
:101F00005B1EF9D5A142D3D3002070BD3C1F000059
:101F10000000001004000000CC020000401F000080
:101F200000C0072008020000AC1E0000401F000097
:101F30000400001004020000DC02000000E1F505CE
:101F400002250001024D2A01102D0A0D48656C6C16
:101F50006F204E58502053656D69636F6E647563D2
:101F6000746F7273200A0D204144432062757273AE
:101F7000742064656D6F12501109202D204D43555A
:101F80003A204C504331377878137014436F7265A0
:101F90003A2041524D20434F525445582D4D331A4B
:101FA00010156D6D756E6963617465207669613AAF
:101FB00020554152543019300A31313532303020F9
:101FC00062706930045573656D20197769746820F3
:101FD00031322D626974207265736F6C7574696F2C
:101FE0006E20723F10046F662032500D4B487A2CE1
:101FF0002072756E6E696E679C10086D6F64652047
:10200000287311126C26100972206D756C7469703A
:102010000C1007696E707574295F3008446973701D
:102020006C617963300576616C758C418B117D1024
:102030000F5475726E2074686520706F74656E71D0
:1020400090116D6574657220746F207365652068EA
:102050006F7738040A506368616E6765730A0D898B
:042060003903000040
:04000005000000CD2A
:00000001FF
